:060000000A128A110C280F
:10000800FE00030EF3000A08F4000A128A11712890
:100018000A128A110F280A128A1101210A128A115A
:10002800F800F501F601F70183010A128A11B728D1
:1000380001308316031788008901013083160313E2
:100048008500831203138501831603138701831226
:10005800031387018316031388018312031388018E
:10006800831603138901831203138901831603136B
:100078000F088F3940388F000F148B170B178B150B
:100088001614961416150B10831203130C138316EB
:1000980003130C17061486140615811315149514EA
:1000A8001515831203131F083F3940389F00831624
:1000B80003131F129F12C330831203139F05831665
:1000C80003139F13831203131F14023083120313A5
:1000D800A000A00B6D2800000800831203130C1F5A
:1000E8007628772887281F0CF200720C0F39003AFF
:1000F800031D7F28802886281E08F2007208F70052
:10010800770887000C130B1C8A288B28B028061840
:100118008E288F289328F501F6010910AF28861834
:10012800962897289E280130F5000030F60009141B
:100138006300AF280619A128A228AF28F501F60107
:1001480009107708F2007208F00078080A128A117C
:10015800DD200A128A110B1074088A00730E8300BE
:10016800FE0E7E0E09000A128A111C200A128A113C
:1001780075087604031DC128C228D02883120313EA
:100188009F18C728C828D0289F1402308312031349
:10019800A100A10BCD28000078080A128A11F220CC
:1001A8000A128A11831203138800BC280A128A11C2
:1001B8000C28F1007108831203178D0070088C0059
:1001C800831603178C130C158B1355308D00AA302A
:1001D8008D008C140C110B108B170800831203135D
:1001E800A0002008831203178D00831603178C13B1
:0C01F8000C14831203170C0808000134DB
:08400000FF3FFF3FFF3FFF3FC0
:04400E00D420FF3F7C
:00000001FF
