:060000000A128A110C280F
:10000800FE00030EF1000A08F2000A128A116528A0
:100018000A128A110F28F501F601F70183010A1265
:100028008A11992801308316031788008901013045
:1000380083160313850083120313850183160313A4
:100048008701831203138701831603138801831220
:10005800031388018316031389018312031389018B
:10006800831603130F088F3940388F000F148B172E
:100078000B178B15161496140B10831203130C13FD
:10008800831603130C17061486148113151495147C
:10009800831203131F083F3940389F008316031348
:1000A8001F129F12C330831203139F058316031375
:1000B8009F13831203131F140330F300F30B6228FA
:1000C8000800831203130C1F6A286B287B281F0C57
:1000D800F000700C0F39003A031D732874287A2831
:1000E8001E08F0007008F700770887000C130B1C37
:1000F8007E287F2892280618822883288728F501D9
:10010800F6010910912886188A288B289128013031
:10011800F5000030F600091463000B1072088A001D
:10012800710E8300FE0E7E0E09000A128A11162037
:100138000A128A1175087604031DA328A4289E288C
:10014800831203139F18A928AA289E289F140330F6
:0E015800F400F40BAD289E280A128A110C2820
:08400000FF3FFF3FFF3FFF3FC0
:04400E00D420FF3F7C
:00000001FF
